{
  "contractName": "DecentralBank",
  "abi": [
    {
      "inputs": [
        {
          "internalType": "contract RWD",
          "name": "_rwd",
          "type": "address"
        },
        {
          "internalType": "contract Tether",
          "name": "_tether",
          "type": "address"
        }
      ],
      "stateMutability": "nonpayable",
      "type": "constructor"
    },
    {
      "inputs": [
        {
          "internalType": "address",
          "name": "",
          "type": "address"
        }
      ],
      "name": "hasStaked",
      "outputs": [
        {
          "internalType": "bool",
          "name": "",
          "type": "bool"
        }
      ],
      "stateMutability": "view",
      "type": "function",
      "constant": true
    },
    {
      "inputs": [
        {
          "internalType": "address",
          "name": "",
          "type": "address"
        }
      ],
      "name": "isStaked",
      "outputs": [
        {
          "internalType": "bool",
          "name": "",
          "type": "bool"
        }
      ],
      "stateMutability": "view",
      "type": "function",
      "constant": true
    },
    {
      "inputs": [],
      "name": "name",
      "outputs": [
        {
          "internalType": "string",
          "name": "",
          "type": "string"
        }
      ],
      "stateMutability": "view",
      "type": "function",
      "constant": true
    },
    {
      "inputs": [],
      "name": "owner",
      "outputs": [
        {
          "internalType": "address",
          "name": "",
          "type": "address"
        }
      ],
      "stateMutability": "view",
      "type": "function",
      "constant": true
    },
    {
      "inputs": [],
      "name": "rwd",
      "outputs": [
        {
          "internalType": "contract RWD",
          "name": "",
          "type": "address"
        }
      ],
      "stateMutability": "view",
      "type": "function",
      "constant": true
    },
    {
      "inputs": [
        {
          "internalType": "uint256",
          "name": "",
          "type": "uint256"
        }
      ],
      "name": "stakers",
      "outputs": [
        {
          "internalType": "address",
          "name": "",
          "type": "address"
        }
      ],
      "stateMutability": "view",
      "type": "function",
      "constant": true
    },
    {
      "inputs": [
        {
          "internalType": "address",
          "name": "",
          "type": "address"
        }
      ],
      "name": "stakingBalance",
      "outputs": [
        {
          "internalType": "uint256",
          "name": "",
          "type": "uint256"
        }
      ],
      "stateMutability": "view",
      "type": "function",
      "constant": true
    },
    {
      "inputs": [],
      "name": "tether",
      "outputs": [
        {
          "internalType": "contract Tether",
          "name": "",
          "type": "address"
        }
      ],
      "stateMutability": "view",
      "type": "function",
      "constant": true
    },
    {
      "inputs": [
        {
          "internalType": "uint256",
          "name": "_amount",
          "type": "uint256"
        }
      ],
      "name": "depositToken",
      "outputs": [],
      "stateMutability": "nonpayable",
      "type": "function"
    },
    {
      "inputs": [],
      "name": "issueTokens",
      "outputs": [],
      "stateMutability": "nonpayable",
      "type": "function"
    },
    {
      "inputs": [],
      "name": "unstakingTokens",
      "outputs": [],
      "stateMutability": "nonpayable",
      "type": "function"
    }
  ],
  "bytecode": "0x60806040526040518060400160405280600e81526020017f446563656e7472616c2042616e6b000000000000000000000000000000000000815250600090805190602001906200005192919062000150565b503480156200005f57600080fd5b50604051620014813803806200148183398181016040528101906200008591906200022e565b80600260006101000a81548173ffffffffffffffffffffffffffffffffffffffff021916908373ffffffffffffffffffffffffffffffffffffffff16021790555081600360006101000a81548173ffffffffffffffffffffffffffffffffffffffff021916908373ffffffffffffffffffffffffffffffffffffffff16021790555033600160006101000a81548173ffffffffffffffffffffffffffffffffffffffff021916908373ffffffffffffffffffffffffffffffffffffffff160217905550505062000364565b8280546200015e90620002cb565b90600052602060002090601f016020900481019282620001825760008555620001ce565b82601f106200019d57805160ff1916838001178555620001ce565b82800160010185558215620001ce579182015b82811115620001cd578251825591602001919060010190620001b0565b5b509050620001dd9190620001e1565b5090565b5b80821115620001fc576000816000905550600101620001e2565b5090565b600081519050620002118162000330565b92915050565b60008151905062000228816200034a565b92915050565b600080604083850312156200024257600080fd5b6000620002528582860162000200565b9250506020620002658582860162000217565b9150509250929050565b60006200027c82620002ab565b9050919050565b600062000290826200026f565b9050919050565b6000620002a4826200026f565b9050919050565b600073ffffffffffffffffffffffffffffffffffffffff82169050919050565b60006002820490506001821680620002e457607f821691505b60208210811415620002fb57620002fa62000301565b5b50919050565b7f4e487b7100000000000000000000000000000000000000000000000000000000600052602260045260246000fd5b6200033b8162000283565b81146200034757600080fd5b50565b620003558162000297565b81146200036157600080fd5b50565b61110d80620003746000396000f3fe608060405234801561001057600080fd5b50600436106100a95760003560e01c806360ab58521161007157806360ab5852146101425780636177fd181461014c5780636215be771461017c5780638da5cb5b14610198578063c93c8f34146101b6578063fd5e6dd1146101e6576100a9565b806306fdde03146100ae5780631a8972d3146100cc57806333f20786146100ea57806345bc78ab146100f45780635efc071a14610124575b600080fd5b6100b6610216565b6040516100c39190610cd5565b60405180910390f35b6100d46102a4565b6040516100e19190610c9f565b60405180910390f35b6100f26102ca565b005b61010e60048036038101906101099190610aa1565b6104a1565b60405161011b9190610d57565b60405180910390f35b61012c6104b9565b6040516101399190610cba565b60405180910390f35b61014a6104df565b005b61016660048036038101906101619190610aa1565b61070a565b6040516101739190610c84565b60405180910390f35b61019660048036038101906101919190610af3565b61072a565b005b6101a06109dd565b6040516101ad9190610c09565b60405180910390f35b6101d060048036038101906101cb9190610aa1565b610a03565b6040516101dd9190610c84565b60405180910390f35b61020060048036038101906101fb9190610af3565b610a23565b60405161020d9190610c09565b60405180910390f35b6000805461022390610ed8565b80601f016020809104026020016040519081016040528092919081815260200182805461024f90610ed8565b801561029c5780601f106102715761010080835404028352916020019161029c565b820191906000526020600020905b81548152906001019060200180831161027f57829003601f168201915b505050505081565b600360009054906101000a900473ffffffffffffffffffffffffffffffffffffffff1681565b6000600560003373ffffffffffffffffffffffffffffffffffffffff1673ffffffffffffffffffffffffffffffffffffffff16815260200190815260200160002054905060008111610351576040517f08c379a000000000000000000000000000000000000000000000000000000000815260040161034890610d37565b60405180910390fd5b600260009054906101000a900473ffffffffffffffffffffffffffffffffffffffff1673ffffffffffffffffffffffffffffffffffffffff1663a9059cbb33836040518363ffffffff1660e01b81526004016103ae929190610c5b565b602060405180830381600087803b1580156103c857600080fd5b505af11580156103dc573d6000803e3d6000fd5b505050506040513d601f19601f820116820180604052508101906104009190610aca565b506000600560003373ffffffffffffffffffffffffffffffffffffffff1673ffffffffffffffffffffffffffffffffffffffff168152602001908152602001600020819055506000600760003373ffffffffffffffffffffffffffffffffffffffff1673ffffffffffffffffffffffffffffffffffffffff16815260200190815260200160002060006101000a81548160ff02191690831515021790555050565b60056020528060005260406000206000915090505481565b600260009054906101000a900473ffffffffffffffffffffffffffffffffffffffff1681565b600160009054906101000a900473ffffffffffffffffffffffffffffffffffffffff1673ffffffffffffffffffffffffffffffffffffffff163373ffffffffffffffffffffffffffffffffffffffff161461056f576040517f08c379a000000000000000000000000000000000000000000000000000000000815260040161056690610cf7565b60405180910390fd5b60005b600480549050811015610707576000600482815481106105bb577f4e487b7100000000000000000000000000000000000000000000000000000000600052603260045260246000fd5b9060005260206000200160009054906101000a900473ffffffffffffffffffffffffffffffffffffffff16905060006009600560008473ffffffffffffffffffffffffffffffffffffffff1673ffffffffffffffffffffffffffffffffffffffff168152602001908152602001600020546106369190610de4565b905060008111156106f257600360009054906101000a900473ffffffffffffffffffffffffffffffffffffffff1673ffffffffffffffffffffffffffffffffffffffff1663a9059cbb83836040518363ffffffff1660e01b815260040161069e929190610c5b565b602060405180830381600087803b1580156106b857600080fd5b505af11580156106cc573d6000803e3d6000fd5b505050506040513d601f19601f820116820180604052508101906106f09190610aca565b505b505080806106ff90610f0a565b915050610572565b50565b60076020528060005260406000206000915054906101000a900460ff1681565b6000811161076d576040517f08c379a000000000000000000000000000000000000000000000000000000000815260040161076490610d17565b60405180910390fd5b600260009054906101000a900473ffffffffffffffffffffffffffffffffffffffff1673ffffffffffffffffffffffffffffffffffffffff166323b872dd3330846040518463ffffffff1660e01b81526004016107cc93929190610c24565b602060405180830381600087803b1580156107e657600080fd5b505af11580156107fa573d6000803e3d6000fd5b505050506040513d601f19601f8201168201806040525081019061081e9190610aca565b5080600560003373ffffffffffffffffffffffffffffffffffffffff1673ffffffffffffffffffffffffffffffffffffffff168152602001908152602001600020600082825461086e9190610d8e565b92505081905550600660003373ffffffffffffffffffffffffffffffffffffffff1673ffffffffffffffffffffffffffffffffffffffff16815260200190815260200160002060009054906101000a900460ff1661092a576004339080600181540180825580915050600190039060005260206000200160009091909190916101000a81548173ffffffffffffffffffffffffffffffffffffffff021916908373ffffffffffffffffffffffffffffffffffffffff1602179055505b6001600760003373ffffffffffffffffffffffffffffffffffffffff1673ffffffffffffffffffffffffffffffffffffffff16815260200190815260200160002060006101000a81548160ff0219169083151502179055506001600660003373ffffffffffffffffffffffffffffffffffffffff1673ffffffffffffffffffffffffffffffffffffffff16815260200190815260200160002060006101000a81548160ff02191690831515021790555050565b600160009054906101000a900473ffffffffffffffffffffffffffffffffffffffff1681565b60066020528060005260406000206000915054906101000a900460ff1681565b60048181548110610a3357600080fd5b906000526020600020016000915054906101000a900473ffffffffffffffffffffffffffffffffffffffff1681565b600081359050610a7181611092565b92915050565b600081519050610a86816110a9565b92915050565b600081359050610a9b816110c0565b92915050565b600060208284031215610ab357600080fd5b6000610ac184828501610a62565b91505092915050565b600060208284031215610adc57600080fd5b6000610aea84828501610a77565b91505092915050565b600060208284031215610b0557600080fd5b6000610b1384828501610a8c565b91505092915050565b610b2581610e15565b82525050565b610b3481610e27565b82525050565b610b4381610e5d565b82525050565b610b5281610e81565b82525050565b6000610b6382610d72565b610b6d8185610d7d565b9350610b7d818560208601610ea5565b610b8681610fe0565b840191505092915050565b6000610b9e601383610d7d565b9150610ba982610ff1565b602082019050919050565b6000610bc1601583610d7d565b9150610bcc8261101a565b602082019050919050565b6000610be4602383610d7d565b9150610bef82611043565b604082019050919050565b610c0381610e53565b82525050565b6000602082019050610c1e6000830184610b1c565b92915050565b6000606082019050610c396000830186610b1c565b610c466020830185610b1c565b610c536040830184610bfa565b949350505050565b6000604082019050610c706000830185610b1c565b610c7d6020830184610bfa565b9392505050565b6000602082019050610c996000830184610b2b565b92915050565b6000602082019050610cb46000830184610b3a565b92915050565b6000602082019050610ccf6000830184610b49565b92915050565b60006020820190508181036000830152610cef8184610b58565b905092915050565b60006020820190508181036000830152610d1081610b91565b9050919050565b60006020820190508181036000830152610d3081610bb4565b9050919050565b60006020820190508181036000830152610d5081610bd7565b9050919050565b6000602082019050610d6c6000830184610bfa565b92915050565b600081519050919050565b600082825260208201905092915050565b6000610d9982610e53565b9150610da483610e53565b9250827fffffffffffffffffffffffffffffffffffffffffffffffffffffffffffffffff03821115610dd957610dd8610f53565b5b828201905092915050565b6000610def82610e53565b9150610dfa83610e53565b925082610e0a57610e09610f82565b5b828204905092915050565b6000610e2082610e33565b9050919050565b60008115159050919050565b600073ffffffffffffffffffffffffffffffffffffffff82169050919050565b6000819050919050565b6000610e6882610e6f565b9050919050565b6000610e7a82610e33565b9050919050565b6000610e8c82610e93565b9050919050565b6000610e9e82610e33565b9050919050565b60005b83811015610ec3578082015181840152602081019050610ea8565b83811115610ed2576000848401525b50505050565b60006002820490506001821680610ef057607f821691505b60208210811415610f0457610f03610fb1565b5b50919050565b6000610f1582610e53565b91507fffffffffffffffffffffffffffffffffffffffffffffffffffffffffffffffff821415610f4857610f47610f53565b5b600182019050919050565b7f4e487b7100000000000000000000000000000000000000000000000000000000600052601160045260246000fd5b7f4e487b7100000000000000000000000000000000000000000000000000000000600052601260045260246000fd5b7f4e487b7100000000000000000000000000000000000000000000000000000000600052602260045260246000fd5b6000601f19601f8301169050919050565b7f63616c6c6572206973206e6f74206f776e657200000000000000000000000000600082015250565b7f616d6f756e742063616e6e6f74206265207a65726f0000000000000000000000600082015250565b7f7374616b696e672062616c616e63652063616e6e6f74206265206c657373207a60008201527f65726f0000000000000000000000000000000000000000000000000000000000602082015250565b61109b81610e15565b81146110a657600080fd5b50565b6110b281610e27565b81146110bd57600080fd5b50565b6110c981610e53565b81146110d457600080fd5b5056fea2646970667358221220b2099f8c555ea9ca7006ff0844b5ecad763f0bd66fbeff052ce36974b1f40c0164736f6c63430008040033",
  "immutableReferences": {},
  "source": "// SPDX-License-Identifier: MIT\npragma solidity ^0.8.4;\n\nimport './Tether.sol';\nimport './RWD.sol';\n\n//reward token contract\ncontract DecentralBank {\n    string public name= 'Decentral Bank';\n    address public owner;\n    \n    Tether public tether;\n    RWD public  rwd;\n\n    address[] public stakers;\n    mapping(address => uint) public stakingBalance;\n    mapping(address => bool) public hasStaked;\n    mapping(address => bool) public isStaked;\n\n\n    constructor(RWD _rwd, Tether _tether){\n        tether=_tether;\n        rwd= _rwd;\n        owner=msg.sender;\n\n    }\n    //staking functio\n    function depositToken(uint _amount) public{\n        require(_amount >0 , \"amount cannot be zero\");\n        //transfer tether token to this contract for staking\n        tether.transferFrom(msg.sender, address(this), _amount);\n\n        stakingBalance[msg.sender]+=_amount;\n\n        if(!hasStaked[msg.sender]){\n            stakers.push(msg.sender);\n        }\n        isStaked[msg.sender]=true;\n        hasStaked[msg.sender]=true;\n\n    }\n    function issueTokens() public{\n        require(msg.sender==owner,\"caller is not owner\");\n        for(uint i=0; i<stakers.length; i++){\n            address recipient= stakers[i];\n            uint balance= stakingBalance[recipient]/9;\n            if(balance>0){\n                rwd.transfer(recipient, balance);\n            }\n\n        }\n    }\n    function unstakingTokens() public{\n        uint balance = stakingBalance[msg.sender];\n        require(balance > 0, \"staking balance cannot be less zero\");\n        tether.transfer(msg.sender, balance);\n        stakingBalance[msg.sender]=0;\n        isStaked[msg.sender]=false;\n\n    }\n\n}",
  "sourcePath": "/home/zahid/Desktop/etherum/defi-staking-app-starter/defi-staking-app-starter/src/contracts/DecentralBank.sol",
  "compiler": {
    "name": "solc",
    "version": "0.8.4+commit.c7e474f2.Emscripten.clang"
  },
  "schemaVersion": "3.4.10",
  "updatedAt": "2022-11-28T10:48:42.990Z",
  "networkType": "ethereum",
  "devdoc": {
    "kind": "dev",
    "methods": {},
    "version": 1
  },
  "userdoc": {
    "kind": "user",
    "methods": {},
    "version": 1
  }
}