{
  "contractName": "RWD",
  "abi": [
    {
      "inputs": [],
      "stateMutability": "nonpayable",
      "type": "constructor"
    },
    {
      "anonymous": false,
      "inputs": [
        {
          "indexed": true,
          "internalType": "address",
          "name": "owner",
          "type": "address"
        },
        {
          "indexed": true,
          "internalType": "address",
          "name": "spender",
          "type": "address"
        },
        {
          "indexed": false,
          "internalType": "uint256",
          "name": "",
          "type": "uint256"
        }
      ],
      "name": "Approval",
      "type": "event"
    },
    {
      "anonymous": false,
      "inputs": [
        {
          "indexed": true,
          "internalType": "address",
          "name": "from",
          "type": "address"
        },
        {
          "indexed": true,
          "internalType": "address",
          "name": "t0",
          "type": "address"
        },
        {
          "indexed": false,
          "internalType": "uint256",
          "name": "",
          "type": "uint256"
        }
      ],
      "name": "Transfer",
      "type": "event"
    },
    {
      "inputs": [
        {
          "internalType": "address",
          "name": "",
          "type": "address"
        }
      ],
      "name": "balanceOf",
      "outputs": [
        {
          "internalType": "uint256",
          "name": "",
          "type": "uint256"
        }
      ],
      "stateMutability": "view",
      "type": "function",
      "constant": true
    },
    {
      "inputs": [],
      "name": "name",
      "outputs": [
        {
          "internalType": "string",
          "name": "",
          "type": "string"
        }
      ],
      "stateMutability": "view",
      "type": "function",
      "constant": true
    },
    {
      "inputs": [],
      "name": "symbol",
      "outputs": [
        {
          "internalType": "string",
          "name": "",
          "type": "string"
        }
      ],
      "stateMutability": "view",
      "type": "function",
      "constant": true
    },
    {
      "inputs": [
        {
          "internalType": "address",
          "name": "reciver",
          "type": "address"
        },
        {
          "internalType": "uint256",
          "name": "numtoken",
          "type": "uint256"
        }
      ],
      "name": "transfer",
      "outputs": [
        {
          "internalType": "bool",
          "name": "",
          "type": "bool"
        }
      ],
      "stateMutability": "nonpayable",
      "type": "function"
    },
    {
      "inputs": [
        {
          "internalType": "address",
          "name": "_spender",
          "type": "address"
        },
        {
          "internalType": "uint256",
          "name": "_token",
          "type": "uint256"
        }
      ],
      "name": "approval",
      "outputs": [
        {
          "internalType": "bool",
          "name": "success",
          "type": "bool"
        }
      ],
      "stateMutability": "nonpayable",
      "type": "function"
    },
    {
      "inputs": [
        {
          "internalType": "address",
          "name": "_from",
          "type": "address"
        },
        {
          "internalType": "address",
          "name": "_to",
          "type": "address"
        },
        {
          "internalType": "uint256",
          "name": "_token",
          "type": "uint256"
        }
      ],
      "name": "transferFrom",
      "outputs": [
        {
          "internalType": "bool",
          "name": "success",
          "type": "bool"
        }
      ],
      "stateMutability": "nonpayable",
      "type": "function"
    }
  ],
  "bytecode": "0x60806040526040518060400160405280600c81526020017f52657761726420546f6b656e0000000000000000000000000000000000000000815250600090805190602001906200005192919062000126565b506040518060400160405280600381526020017f5257440000000000000000000000000000000000000000000000000000000000815250600190805190602001906200009f92919062000126565b506b033b2e3c9fd0803ce80000006002556012600360006101000a81548160ff021916908360ff160217905550348015620000d957600080fd5b50600254600460003373ffffffffffffffffffffffffffffffffffffffff1673ffffffffffffffffffffffffffffffffffffffff168152602001908152602001600020819055506200023b565b8280546200013490620001d6565b90600052602060002090601f016020900481019282620001585760008555620001a4565b82601f106200017357805160ff1916838001178555620001a4565b82800160010185558215620001a4579182015b82811115620001a357825182559160200191906001019062000186565b5b509050620001b39190620001b7565b5090565b5b80821115620001d2576000816000905550600101620001b8565b5090565b60006002820490506001821680620001ef57607f821691505b602082108114156200020657620002056200020c565b5b50919050565b7f4e487b7100000000000000000000000000000000000000000000000000000000600052602260045260246000fd5b610b2f806200024b6000396000f3fe608060405234801561001057600080fd5b50600436106100625760003560e01c806306fdde031461006757806323b872dd1461008557806370a08231146100b557806375247a58146100e557806395d89b4114610115578063a9059cbb14610133575b600080fd5b61006f610163565b60405161007c91906108cc565b60405180910390f35b61009f600480360381019061009a91906107cf565b6101f1565b6040516100ac91906108b1565b60405180910390f35b6100cf60048036038101906100ca91906107a6565b61047b565b6040516100dc91906108ee565b60405180910390f35b6100ff60048036038101906100fa919061081e565b610493565b60405161010c91906108b1565b60405180910390f35b61011d610585565b60405161012a91906108cc565b60405180910390f35b61014d6004803603810190610148919061081e565b610613565b60405161015a91906108b1565b60405180910390f35b6000805461017090610a2a565b80601f016020809104026020016040519081016040528092919081815260200182805461019c90610a2a565b80156101e95780601f106101be576101008083540402835291602001916101e9565b820191906000526020600020905b8154815290600101906020018083116101cc57829003601f168201915b505050505081565b600080600560008673ffffffffffffffffffffffffffffffffffffffff1673ffffffffffffffffffffffffffffffffffffffff16815260200190815260200160002060003373ffffffffffffffffffffffffffffffffffffffff1673ffffffffffffffffffffffffffffffffffffffff16815260200190815260200160002054905082600460008773ffffffffffffffffffffffffffffffffffffffff1673ffffffffffffffffffffffffffffffffffffffff16815260200190815260200160002054101580156102c25750828110155b6102cb57600080fd5b82600460008673ffffffffffffffffffffffffffffffffffffffff1673ffffffffffffffffffffffffffffffffffffffff168152602001908152602001600020600082825461031a9190610925565b9250508190555082600460008773ffffffffffffffffffffffffffffffffffffffff1673ffffffffffffffffffffffffffffffffffffffff1681526020019081526020016000206000828254610370919061097b565b9250508190555082600560008773ffffffffffffffffffffffffffffffffffffffff1673ffffffffffffffffffffffffffffffffffffffff16815260200190815260200160002060003373ffffffffffffffffffffffffffffffffffffffff1673ffffffffffffffffffffffffffffffffffffffff1681526020019081526020016000206000828254610403919061097b565b925050819055508373ffffffffffffffffffffffffffffffffffffffff168573ffffffffffffffffffffffffffffffffffffffff167fddf252ad1be2c89b69c2b068fc378daa952ba7f163c4a11628f55a4df523b3ef8560405161046791906108ee565b60405180910390a360019150509392505050565b60046020528060005260406000206000915090505481565b600081600560003373ffffffffffffffffffffffffffffffffffffffff1673ffffffffffffffffffffffffffffffffffffffff16815260200190815260200160002060008573ffffffffffffffffffffffffffffffffffffffff1673ffffffffffffffffffffffffffffffffffffffff168152602001908152602001600020819055508273ffffffffffffffffffffffffffffffffffffffff163373ffffffffffffffffffffffffffffffffffffffff167f8c5be1e5ebec7d5bd14f71427d1e84f3dd0314c0f7b2291e5b200ac8c7c3b9258460405161057391906108ee565b60405180910390a36001905092915050565b6001805461059290610a2a565b80601f01602080910402602001604051908101604052809291908181526020018280546105be90610a2a565b801561060b5780601f106105e05761010080835404028352916020019161060b565b820191906000526020600020905b8154815290600101906020018083116105ee57829003601f168201915b505050505081565b6000600460003373ffffffffffffffffffffffffffffffffffffffff1673ffffffffffffffffffffffffffffffffffffffff1681526020019081526020016000205482111561066157600080fd5b81600460003373ffffffffffffffffffffffffffffffffffffffff1673ffffffffffffffffffffffffffffffffffffffff16815260200190815260200160002060008282546106b0919061097b565b9250508190555081600460008573ffffffffffffffffffffffffffffffffffffffff1673ffffffffffffffffffffffffffffffffffffffff16815260200190815260200160002060008282546107069190610925565b925050819055508273ffffffffffffffffffffffffffffffffffffffff163373ffffffffffffffffffffffffffffffffffffffff167fddf252ad1be2c89b69c2b068fc378daa952ba7f163c4a11628f55a4df523b3ef8460405161076a91906108ee565b60405180910390a36001905092915050565b60008135905061078b81610acb565b92915050565b6000813590506107a081610ae2565b92915050565b6000602082840312156107b857600080fd5b60006107c68482850161077c565b91505092915050565b6000806000606084860312156107e457600080fd5b60006107f28682870161077c565b93505060206108038682870161077c565b925050604061081486828701610791565b9150509250925092565b6000806040838503121561083157600080fd5b600061083f8582860161077c565b925050602061085085828601610791565b9150509250929050565b610863816109c1565b82525050565b600061087482610909565b61087e8185610914565b935061088e8185602086016109f7565b61089781610aba565b840191505092915050565b6108ab816109ed565b82525050565b60006020820190506108c6600083018461085a565b92915050565b600060208201905081810360008301526108e68184610869565b905092915050565b600060208201905061090360008301846108a2565b92915050565b600081519050919050565b600082825260208201905092915050565b6000610930826109ed565b915061093b836109ed565b9250827fffffffffffffffffffffffffffffffffffffffffffffffffffffffffffffffff038211156109705761096f610a5c565b5b828201905092915050565b6000610986826109ed565b9150610991836109ed565b9250828210156109a4576109a3610a5c565b5b828203905092915050565b60006109ba826109cd565b9050919050565b60008115159050919050565b600073ffffffffffffffffffffffffffffffffffffffff82169050919050565b6000819050919050565b60005b83811015610a155780820151818401526020810190506109fa565b83811115610a24576000848401525b50505050565b60006002820490506001821680610a4257607f821691505b60208210811415610a5657610a55610a8b565b5b50919050565b7f4e487b7100000000000000000000000000000000000000000000000000000000600052601160045260246000fd5b7f4e487b7100000000000000000000000000000000000000000000000000000000600052602260045260246000fd5b6000601f19601f8301169050919050565b610ad4816109af565b8114610adf57600080fd5b50565b610aeb816109ed565b8114610af657600080fd5b5056fea26469706673582212204babb381fc96dd522886127c684f2c320dd161ade7e7470629f6b03123e082fa64736f6c63430008040033",
  "immutableReferences": {},
  "source": "// SPDX-License-Identifier: MIT\npragma solidity ^0.8.4;\n\n//reward token contract\ncontract RWD {\n    string public name = \"Reward Token\";\n    string public symbol = \"RWD\";\n    uint256 totalSuply = 1000000000000000000000000000;\n    uint8 decimals = 18;\n\n    mapping(address => uint256) public balanceOf;\n\n    mapping(address => mapping(address => uint256)) private _allowances;\n    event Transfer(address indexed from, address indexed t0, uint256);\n    event Approval(address indexed owner, address indexed spender, uint256);\n\n    constructor() {\n        balanceOf[msg.sender] = totalSuply;\n    }\n\n    function transfer(address reciver, uint256 numtoken) public returns (bool) {\n        require(numtoken <= balanceOf[msg.sender]);\n        balanceOf[msg.sender] -= numtoken;\n        balanceOf[reciver] += numtoken;\n        emit Transfer(msg.sender, reciver, numtoken);\n        return true;\n    }\n\n    function approval(address _spender, uint256 _token)\n        public\n        returns (bool success)\n    {\n        _allowances[msg.sender][_spender] = _token;\n\n        emit Approval(msg.sender, _spender, _token);\n\n        return true;\n    }\n\n    function transferFrom(\n        address _from,\n        address _to,\n        uint256 _token\n    ) public returns (bool success) {\n        uint256 allowance = _allowances[_from][msg.sender];\n        require(balanceOf[_from] >= _token && allowance >= _token);\n        balanceOf[_to] += _token;\n        balanceOf[_from] -= _token;\n        _allowances[_from][msg.sender] -= _token;\n        emit Transfer(_from, _to, _token);\n        return true;\n    }\n}\n",
  "sourcePath": "/home/zahid/Desktop/etherum/defi-staking-app-starter/defi-staking-app-starter/src/contracts/RWD.sol",
  "compiler": {
    "name": "solc",
    "version": "0.8.4+commit.c7e474f2.Emscripten.clang"
  },
  "schemaVersion": "3.4.10",
  "updatedAt": "2022-11-28T10:48:42.983Z",
  "networkType": "ethereum",
  "devdoc": {
    "kind": "dev",
    "methods": {},
    "version": 1
  },
  "userdoc": {
    "kind": "user",
    "methods": {},
    "version": 1
  }
}