{
    "contractName": "Tether",
    "abi": [
        {
            "inputs": [],
            "stateMutability": "nonpayable",
            "type": "constructor"
        },
        {
            "anonymous": false,
            "inputs": [
                {
                    "indexed": true,
                    "internalType": "address",
                    "name": "owner",
                    "type": "address"
                },
                {
                    "indexed": true,
                    "internalType": "address",
                    "name": "spender",
                    "type": "address"
                },
                {
                    "indexed": false,
                    "internalType": "uint256",
                    "name": "",
                    "type": "uint256"
                }
            ],
            "name": "Approval",
            "type": "event"
        },
        {
            "anonymous": false,
            "inputs": [
                {
                    "indexed": true,
                    "internalType": "address",
                    "name": "from",
                    "type": "address"
                },
                {
                    "indexed": true,
                    "internalType": "address",
                    "name": "t0",
                    "type": "address"
                },
                {
                    "indexed": false,
                    "internalType": "uint256",
                    "name": "",
                    "type": "uint256"
                }
            ],
            "name": "Transfer",
            "type": "event"
        },
        {
            "inputs": [],
            "name": "name",
            "outputs": [
                {
                    "internalType": "string",
                    "name": "",
                    "type": "string"
                }
            ],
            "stateMutability": "view",
            "type": "function"
        },
        {
            "inputs": [],
            "name": "symbol",
            "outputs": [
                {
                    "internalType": "string",
                    "name": "",
                    "type": "string"
                }
            ],
            "stateMutability": "view",
            "type": "function"
        },
        {
            "inputs": [
                {
                    "internalType": "address",
                    "name": "reciver",
                    "type": "address"
                },
                {
                    "internalType": "uint256",
                    "name": "numtoken",
                    "type": "uint256"
                }
            ],
            "name": "transfer",
            "outputs": [
                {
                    "internalType": "bool",
                    "name": "",
                    "type": "bool"
                }
            ],
            "stateMutability": "nonpayable",
            "type": "function"
        }
    ],
    "bytecode": "60c060405260066080908152652a32ba3432b960d11b60a052600090610025908261012d565b506040805180820190915260048152631554d11560e21b602082015260019061004e908261012d565b5068056bc75e2d631000006002556003805460ff1916601217905534801561007557600080fd5b50600254336000908152600460205260409020556101ec565b634e487b7160e01b600052604160045260246000fd5b600181811c908216806100b857607f821691505b6020821081036100d857634e487b7160e01b600052602260045260246000fd5b50919050565b601f82111561012857600081815260208120601f850160051c810160208610156101055750805b601f850160051c820191505b8181101561012457828155600101610111565b5050505b505050565b81516001600160401b038111156101465761014661008e565b61015a8161015484546100a4565b846100de565b602080601f83116001811461018f57600084156101775750858301515b600019600386901b1c1916600185901b178555610124565b600085815260208120601f198616915b828110156101be5788860151825594840194600190910190840161019f565b50858210156101dc5787850151600019600388901b60f8161c191681555b5050505050600190811b01905550565b610313806101fb6000396000f3fe608060405234801561001057600080fd5b50600436106100415760003560e01c806306fdde031461004657806395d89b4114610064578063a9059cbb1461006c575b600080fd5b61004e61008f565b60405161005b91906101e1565b60405180910390f35b61004e61011d565b61007f61007a36600461022f565b61012a565b604051901515815260200161005b565b6000805461009c90610267565b80601f01602080910402602001604051908101604052809291908181526020018280546100c890610267565b80156101155780601f106100ea57610100808354040283529160200191610115565b820191906000526020600020905b8154815290600101906020018083116100f857829003601f168201915b505050505081565b6001805461009c90610267565b3360009081526004602052604081205482111561014657600080fd5b33600090815260046020526040812080548492906101659084906102b7565b90915550506001600160a01b038316600090815260046020526040812080548492906101929084906102ca565b90915550506040518281526001600160a01b0384169033907fddf252ad1be2c89b69c2b068fc378daa952ba7f163c4a11628f55a4df523b3ef9060200160405180910390a35060015b92915050565b600060208083528351808285015260005b8181101561020e578581018301518582016040015282016101f2565b506000604082860101526040601f19601f8301168501019250505092915050565b6000806040838503121561024257600080fd5b82356001600160a01b038116811461025957600080fd5b946020939093013593505050565b600181811c9082168061027b57607f821691505b60208210810361029b57634e487b7160e01b600052602260045260246000fd5b50919050565b634e487b7160e01b600052601160045260246000fd5b818103818111156101db576101db6102a1565b808201808211156101db576101db6102a156fea2646970667358221220949d9cf7071ffd5056a456422752bfa08ced2b5dbac244af87f35fce8870d57264736f6c63430008110033",
    "sourcePath": "/home/zahid/Desktop/etherum/defi-staking-app-starter/defi-staking-app-starter/src/contracts/Tether.sol",
    "compiler": {
        "name": "solc",
        "version": "0.8.17+commit.8df45f5f"
    },
    "functionHashes": {
        "name()": "06fdde03",
        "symbol()": "95d89b41",
        "transfer(address,uint256)": "a9059cbb"
    },
    "gasEstimates": {
        "creation": {
            "codeDepositCost": "157400",
            "executionCost": "infinite",
            "totalCost": "infinite"
        },
        "external": {
            "name()": "infinite",
            "symbol()": "infinite",
            "transfer(address,uint256)": "infinite"
        }
    }
}